:0300000002000EED
:0C000E00787FE4F6D8FD75815D020B746C
:10003E000000000100020003000400050006000895
:10004E000009000A000B000C000D000E000F00103E
:10005E0000110012001300140015001600170018EE
:10006E000019001A001B001C001D001E001F00209E
:10007E000021002200230024002400250026002752
:10008E0000280029002A002B002C002D002E002F06
:10009E0000300031003200330034003500360037B6
:1000AE0000380039003A003B003B003C003D003E6A
:1000BE00003F00400041004200430044004500461E
:1000CE000047004800480049004A004B004C004DD4
:1000DE00004E004F00500051005200530053005488
:1000EE0000550056005700580059005A005B005C3E
:1000FE00005D005D005E005F0060006100620063F5
:10010E000064006500660066006700680069006AAA
:10011E00006B006C006D006E006E006F0070007161
:10012E000072007300740075007500760077007819
:10013E000079007A007B007C007D007D007E007FD0
:10014E000080008100820083008400840085008688
:10015E00008700880089008A008A008B008C008D41
:10016E00008E008F009000910091009200930094F9
:10017E00009500960097009700980099009A009BB2
:10018E00009C009D009E009E009F00A000A100A26A
:10019E0000A300A400A400A500A600A700A800A923
:1001AE0000AA00AA00AB00AC00AD00AE00AF00B0DC
:1001BE0000B000B100B200B300B400B500B600B696
:1001CE0000B700B800B900BA00BB00BC00BD00BD4E
:1001DE0000BE00BF00C000C100C200C300C300C407
:1001EE0000C500C600C700C800C900C900CA00CBC0
:1001FE0000CC00CD00CE00CF00CF00D000D100D279
:10020E0000D300D400D500D500D600D700D800D931
:10021E0000DA00DB00DC00DC00DD00DE00DF00E0E9
:10022E0000E100E200E200E300E400E500E600E7A2
:10023E0000E800E900E900EA00EB00EC00ED00EE5A
:10024E0000EF00F000F000F100F200F300F400F512
:10025E0000F600F700F700F800F900FA00FB00FCCA
:10026E0000FD00FE00FE00FF01000101010201037E
:10027E000104010501060106010701080109010A31
:10028E00010B010C010D010E010E010F01100111E8
:10029E00011201130114011501160116011701189F
:1002AE000119011A011B011C011D011E011F012054
:1002BE00012001210122012301240125012601270C
:1002CE0001280129012A012A012B012C012D012EC1
:1002DE00012F013001310132013301340135013674
:1002EE000136013701380139013A013B013C013D2C
:1002FE00013E013F014001410142014301440145DC
:10030E0001460146014701480149014A014B014C92
:10031E00014D014E014F0150015101520153015443
:10032E0001550156015701580159015A015B015CF3
:10033E00015D015E015F01600161016201630164A3
:10034E0001650166016701680169016A016B016C53
:10035E00016D016E016F0170017101720173017403
:10036E0001750176017701780179017A017B017CB3
:10037E00017D017E017F0180018101820183018463
:10038E0001850186018701880189018A018C018D11
:10039E00018E018F019001910192019301940195BB
:1003AE00019601970198019A019B019C019D019E66
:1003BE00019F01A001A101A201A301A501A601A710
:1003CE0001A801A901AA01AB01AC01AE01AF01B0B8
:1003DE0001B101B201B301B401B601B701B801B95F
:1003EE0001BA01BB01BD01BE01BF01C001C101C205
:1003FE0001C401C501C601C701C801CA01CB01CCA8
:10040E0001CD01CE01D001D101D201D301D501D64A
:10041E0001D701D801DA01DB01DC01DD01DF01E0EA
:10042E0001E101E201E401E501E601E701E901EA8A
:10043E0001EB01ED01EE01EF01F101F201F301F526
:10044E0001F601F701F901FA01FB01FD01FE01FFC1
:10045E000201020202030205020602080209020A52
:10046E00020C020D020F02100211021302140216E8
:10047E0002170219021A021C021D021F022002227A
:10048E0002230225022602280229022B022C022E0A
:10049E00022F023102320234023502370239023A99
:1004AE00023C023D023F0241024202440245024723
:1004BE000249024A024C024E024F025102530254AA
:1004CE0002560258025A025B025D025F026102622C
:1004DE000264026602680269026B026D026F0271AB
:1004EE000273027402760278027A027C027E028025
:1004FE000282028402860288028A028C028E029096
:10050E000292029402960298029A029C029E02A005
:10051E0002A202A402A602A902AB02AD02AF02B170
:10052E0002B402B602B802BA02BD02BF02C102C4D0
:10053E0002C602C802CB02CD02CF02D202D402D72B
:10054E0002D902DC02DE02E102E302E602E902EB7C
:10055E0002EE02F002F302F602F902FB02FE0301C2
:10056E00030403070309030C030F031203150318F7
:10057E00031B031E032103240328032B032E033125
:10058E0003340338033B033E034203450349034C44
:10059E00035003530357035B035E03620366036A50
:1005AE00036E037203750379037E03820386038A47
:1005BE00038E03930397039C03A003A503A903AE25
:1005CE0003B300030009000F0015001B00210027D4
:1005DE00002C00320037003C00410046004B00501A
:1005EE0000550059005E00620067006B006F0074DA
:1005FE000078007C008000840088008B008F0093C0
:10060E000097009A009E00A100A500A800AC00AFC4
:10061E0000B300B600B900BC00C000C300C600C9DC
:10062E0000CC00CF00D200D500D800DB00DE00E108
:10063E0000E400E700E900EC00EF00F200F400F740
:10064E0000FA00FC00FF0102010401070109010C80
:10065E00010E0111011301160118011B011D0120CC
:10066E000122012401270129012B012E0130013223
:10067E00013401370139013B013D01400142014482
:10068E0001460148014A014D014F015101530155E7
:10069E0001570159015B015D015F01610163016554
:1006AE0001670169016B016D016F017101730175C4
:1006BE0001770179017B017D017E01800182018438
:1006CE0001860188018A018B018D018F01910193B1
:1006DE00019501960198019A019C019D019F01A12E
:1006EE0001A301A401A601A801AA01AB01AD01AFAE
:1006FE0001B101B201B401B601B701B901BB01BC30
:10070E0001BE01C001C101C301C501C601C801C9B5
:10071E0001CB01CD01CE01D001D101D301D501D63E
:10072E0001D801D901DB01DD01DE01E001E101E3C8
:10073E0001E401E601E801E901EB01EC01EE01EF54
:10074E0001F101F201F401F501F701F801FA01FBE3
:10075E0001FD01FE0200020102030204020602076D
:10076E000209020A020C020D020E021002110213FD
:10077E000214021602170219021A021B021D021E91
:10078E000220022102230224022502270228022A25
:10079E00022B022D022E022F0231023202330235BB
:1007AE00023602380239023A023C023D023F024052
:1007BE00024102430244024502470248024A024BEA
:1007CE00024C024E024F0250025202530254025683
:1007DE0002570258025A025B025C025E025F02601E
:1007EE00026202630264026602670268026A026BB8
:1007FE00026C026E026F0270027202730274027653
:10080E00027702780279027B027C027D027F0280EF
:10081E000281028302840285028602880289028A8C
:10082E00028C028D028E028F029102920293029529
:10083E00029602970298029A029B029C029E029FC7
:10084E0002A002A102A302A402A502A602A802A966
:10085E0002AA02AC02AD02AE02AF02B102B202B304
:10086E0002B402B602B702B802B902BB02BC02BDA4
:10087E0002BF02C002C102C202C402C502C602C742
:10088E0002C902CA02CB02CC02CE02CF02D002D1E2
:10089E0002D302D402D502D602D802D902DA02DB82
:1008AE0002DD02DE02DF02E002E202E302E402E522
:1008BE0002E702E802E902EA02EC02ED02EE02EFC2
:1008CE0002F102F202F302F402F602F702F802F962
:1008DE0002FB02FC02FD02FE0300030103020303FE
:1008EE0003050306030703080309030B030C030D9B
:1008FE00030E03100311031203130315031603173C
:10090E000318031A031B031C031D031F03200321DB
:10091E00032203240325032603270329032A032B7B
:10092E00032D032E032F0330033203330334033519
:10093E00033703380339033A033C033D033E033FB9
:10094E000341034203430344034603470348034959
:10095E00034B034C034D034F0350035103520354F7
:10096E000355035603570359035A035B035D035E96
:10097E00035F036003620363036403660367036834
:10098E000369036B036C036D036F037003710372D2
:10099E0003740375037603780379037A037B037D6F
:1009AE00037E037F0381038203830385038603870C
:1009BE000389038A038B038C038E038F03900392A8
:1009CE0003930394039603970398039A039B039C44
:1009DE00039E039F03A003A203A303A403A603A7DE
:1009EE0003A803AA03AB03AC03AE03AF03B003B279
:1009FE0003B303B403B603B703B803BA03BB03BD13
:100A0E0003BE03BF03C103C203C303C503C603C8AA
:100A1E0003C903CA03CC03CD03CE03D003D103D342
:100A2E0003D403D503D703D803DA03DB03DC03DED9
:100A3E0003DF03E103E203E303E503E603E803E96F
:100A4E0003EB03EC03ED03EF03F003F2E6E6E6E659
:100A5E00E6E6E6E4E2E0DFDDDCDAD9D7D6D5D3D2BE
:100A6E00D1D0CFCDCCCBCAC9C8C7C6C5C4C3C2C1ED
:100A7E00C0C0BFBEBDBCBBBAB9B9B8B7B6B5B5B4C8
:100A8E00B3B2B1B1B0AFAEAEADACABABAAA9A8A884
:100A9E00A7A6A5A5A4A3A3A2A1A1A09F9E9E9D9C2F
:100AAE009C9B9A9A999898979696959494939292CD
:100ABE009190908F8F8E8D8D8C8B8B8A8989888764
:100ACE008786868584848382828180807F7F7E7DF7
:100ADE007D7C7B7B7A79797878777676757474738A
:100AEE0072727170706F6F6E6D6D6C6B6B6A69691F
:100AFE00686767666565646363626161605F5E5EB9
:100B0E005D5C5C5B5A5A595857575655545453525C
:100B1E005151504F4E4E4D4C4B4A4A49484746460E
:100B2E004544434241403F3F3E3D3C3B3A393837D6
:100B3E003635343332302F2E2D2C2A2928262523D4
:100B4E0022201F1D1B191714120E0A00002A3B50DB
:100B5E0074AFFFB5DDF7010A3264B0E2F1FB0005B8
:060B6E000F1E500090FE76
:10157800AE56AF577C007D64020F83AFBDEFFEAC63
:10158800BEECFBEBFFED25E02430F8227C007D0566
:10159800020F2EE55875F005A42468FFE5F0340124
:1015A800FE226480F8E50B64809822EA93FF339565
:1015B800E0227D64FE7C00020F1C3EF583E493FE6E
:1015C800740193FF22E50B64809480222557F55718
:0615D800EE3556F5562227
:100FB900C3EF94EBEE940050057EFF7FFF22C3EF51
:100FC900947DEE940640057E037FB622EF25E0FF6F
:0E0FD900EE33FE74682FF58274FE1215C222EC
:10166C00C3EF941EEE94005004E4FEFF22C3EF94EB
:10167C00A8EE940440057E037FF322EF25E0FFEEF5
:0D168C0033FE74942FF58274051215C222EE
:08001A007F167E80DEFEDFFC94
:0100220022BB
:09002600E54754C070028F472227
:041000008E0B8F0CB8
:10100400C31215CD500BC3E4950CFFE4950BFE8081
:1010140004AE0BAF0C8E0D8F0EAF55EF3395E0FE83
:10102400C3E50C9FFFE50B9E7D051215BC8E118F49
:1010340012850C55C3E52C9403748094805019E5F3
:101044002C600CE5279458E526648094824009E5D9
:101054002C900B7193FB80027BFFEBFF7E0025122B
:10106400FDEE3511FCD3ED94FFEC648094804004D4
:101074007BFF8016C3EF9512EE9511C364809480B4
:101084005004E4FB8004E5122BFB0551C3E55194A5
:1010940005748094805002219AE4F551F50FF510FF
:1010A400F511F512FAEAC394077480948040022182
:1010B4005E900B681215B3F5138F14900B6A12151A
:1010C400B3F5158F16C3E50C9514E5131215AA5044
:1010D40002215BD3E50C9516E5151215AA5078EAA2
:1010E400900B6993FF3395E08F82F583D3E50C95DC
:1010F40082E5831215AA5019C3E50C9514FFE50B7C
:1011040095131215BAC3E5829514FDE583951380F2
:1011140017C3E516950CFFE515950B1215BAC3E533
:10112400169582FDE5159583FC120F838E138F149B
:10113400E5142510F510E513350FF50FEA900B6152
:1011440093FF3395E0FEAC13AD14120F1CEF251280
:10115400F512EE3511F5110A01A9E510450F600DE0
:10116400AC0FAD10AE11AF12120F838004AE0BAFF3
:101174000CEF1215D4C3648094805007E4F556F53F
:10118400578013D3E557949CE556648094E3400656
:1011940075566375579CD3E50E9432E50D648094BF
:1011A400805002414FD3E50C94321215CD4041E5F5
:1011B4005364016016755301E556648094CB500B5B
:1011C400E55475F064A4AEF01215D4D3E50C9496EE
:1011D4001215CD500CE557946CE556648094E340A9
:1011E400047FFF8007121578EF2430FF8F1780509B
:1011F400E55364026024755302D3E5579480E556A1
:10120400648094A54014E55475F064A4FFAEF0C363
:10121400E5579FF557E5569EF556C3E50C946AE5E8
:101224000B6480947F400CE55794C0E55664809429
:101234009250047F008007121578EF24D0FF8F1797
:10124400E553640470257553058020E553640570E7
:1012540004F5538011E5535403600B755304E554AE
:101264006004C313F5541215788F17E517F4701E34
:101274000552E5527025D3E546940274809480406B
:101284001A154675564B755700755420800DD3E5D5
:101294005294007480948040021552E517C39B5009
:0612A40003AF1722AF03A7
:0112AA002221
:100E4E00054BC3E54B9414748094805002E11BE46F
:100E5E00F54BAF2BAE2AE52324FE605E14606D14B5
:100E6E007002C1F724036002E11BAD31AC30D3ED4B
:100E7E00954EEC954D5011E54E24FFFBE54D34FF9C
:100E8E00FAC3ED9BEC9A50078C4D8D4EE4F54C0554
:100E9E004CC3E54C941E748094804071C204EF9450
:100EAE00BCEE64809482500B7F05120026C205E4CE
:100EBE00F52322752302E4F54C22054CC3E54C9430
:100ECE0078748094804046C205752303A20192A2D5
:100EDE00C3EF9549FDEE9548FCD3ED9405EC648087
:100EEE0094805029C2A2752304C3EF9549FFEE9555
:100EFE0048FED3EF9400EE648094804003C2052236
:0D0F0E00C3EF94FBEE6480947F5002D20587
:010F1B0022B3
:0816DB00E509FF1216E3AF0A56
:1016E300C2AFEFA2D0929BF5993099FDC299D2AFC8
:0116F30022D4
:030023000215DEE5
:1015DE00C0E0C0D075D000C007C298E544146022A8
:1015EE0014601F14602524037027AF99EF64AC704C
:1015FE0005754402801BAF99EF6456701475440153
:10160E00800F85995B05440544800685995875447D
:08161E0005D007D0D0D0E03266
:1016BD00AD07C2AFED24024488F5BCE5BC30E4FBB8
:0E16CD0075BC80121583A60608A607D2AF22B0
:10169900AD07ED24024488F5BCE5BC30E4FB30031A
:1016A9000712158DE4F608F612158308EF26F618C9
:0416B900EE36F622F1
:03000300021626BC
:10162600C0E0C0D075D000C000C003C004C005C073
:1016360006C00730B21F852E59852F5A752E0075A4
:101646002F00D2B6A20292B4A20492B7A20592A02B
:101656007F051216BDD007D006D005D004D003D022
:0616660000D0D0D0E032FC
:03003B0002002F91
:08002F0030D804C2D8055C3290
:03000B000212AB33
:1012AB00C0E0C0F0C083C082C0D075D000C000C009
:1012BB0002C003C004C005C006C007E54A6009E5CB
:1012CB0041D3954A50028001C392A1300232E540CE
:1012DB00602E900A5A936025FD7C00652F7002E505
:1012EB002E601AE559C313FEE55A132DFFEC3EFE93
:1012FB00EF652F7003EE652E6003D38001C392B6AA
:10130B00052FE52F7002052EE52EC4540F601875BE
:10131B005900755A00753A00753B0030B4047F4193
:10132B0080027F401200260541E541600281ECC23C
:10133B00AF7F041216997F031216997F021216992A
:10134B00E4FF12169975BC80C203D2AF052DE52DB3
:10135B006405600281EC855C2CF55CF52DE52CC3F6
:10136B009546501CC3E54A94FF7480948050020547
:10137B004A0545E545642870287F01120026802127
:10138B00E52CD39546400DD3E54A94287480948080
:10139B004002154AD3E545940074809480400215B1
:1013AB0045E52C253FF53FE4353EF53EAE38AF39EC
:1013BB001215948E388F39AE36AF371215948E3690
:1013CB008F37C3E53994EBE538940050057F421213
:1013DB000026C3E539947DE538940640057F43121A
:1013EB000026C3E537941EE536940050057F441262
:1013FB000026C3E5379438E53694024013E537945D
:10140B00A8E536940440047F4580027F0312002632
:10141B00E53924ECFFE53834FFFE120FB98E248F2B
:10142B0025AF37AE3612166C8E268F27E54A602411
:10143B00E522452160067E017FF480047E037F2038
:10144B00C3E5259FEE6480F8E52464809840057F12
:10145B0002120026300210C3E5229527FFE52195E5
:10146B0026FE1210008F40AE34AF351215948E3419
:10147B008F35AE30AF311215948E308F31C3E535C9
:10148B0094EBE534940050057F46120026C3E535F6
:10149B00947DE534940640057F47120026C3E53161
:1014AB00941EE530940050057F48120026C3E531A9
:1014BB0094A8E530940440057F49120026AF35AE61
:1014CB0034120FB98E288F29E5312401FFE4353012
:1014DB00FE12166C8E2A8F2BE5236003120E4ED252
:1014EB0003D007D006D005D004D003D002D000D053
:0A14FB00D0D082D083D0F0D0E032D0
:100B740075A01075B00375930B7594047595E075A5
:100B8400961775B12475B2D843A22075DA61D2DE06
:100B940075BC8043972012001A75BC88E5BC30E40C
:100BA400FB75BC80AFBDEFADBEF53CEDF53D759D6D
:100BB400FC758E95758AA0758CFCC28DD2A9D28CD9
:100BC4007598D075D7D075D6FFD2ACC288D2A8D2CA
:100BD400AFE544FD7C006404600281CFE55BB407AB
:100BE400004002A19C900BEF25E073813A813F61A4
:100BF400FD81718178818781B57F121216E3852486
:100C04000985250A1216DB85260985270A1216DBB3
:100C140085210985220A1216DB7F001216E3AF2C08
:100C24001216E3853A09853B0A1216DBE559FF12D1
:100C340016E3AF5A81CA755D80A19CE4F509F50AF3
:100C440030A203430A0130B303430A0230A0034332
:100C54000A0430B703430A0830A103430A1030B42E
:100C640003430A207F111216E3AF0A8059E5474473
:100C740080FF80527F141216E3E53EFF1216E3AFA5
:100C84003F80437F151216E3AF231216E3E548FFB6
:100C94001216E3AF491216E385280985290A1216AC
:100CA400DB852A09852B0AE509FF1216E3AF0A80C2
:100CB400157F131216E385560985570A1216DBAF02
:100CC4004A1216E3AF401216E3A19CED64054C6092
:100CD40002A19FE55BB408004002A19C900CE625AC
:100CE400E073A14681F6A112A14BA157A15FA17A9D
:100CF400A1961558D3E55894767480948040067E66
:100D0400007F00800312159B8E218F22A19C7460AA
:100D14002558F558D3E5239402748094804003D376
:100D24008001C340077F02120026806CD3E55894EB
:100D3400067480948040047F008002AF5812150529
:100D44008056E4F5478051E4F53EF53FF542855879
:100D5400438045E558FEEE4242803DE4F54DF54EB4
:100D6400F54BE55864BB7009D204D20575230180A4
:100D74002775230480221558D3E558945874809419
:100D84008040067E007F00800312159B8E488F49A9
:100D94008006E55824FF9201E4F544E4F50820A612
:100DA400034308012081034308022083034308040A
:100DB40020CC0343080820CD03430810E5434542F3
:100DC4006017C3E53F9543E53E9542400C43082038
:100DD400E4F53EF53FFF121505E55D6508600D85F8
:100DE400085D7F101216E3AF081216E3E547602092
:100DF400C200C202547F640370047F0180027F003A
:100E0400121505E54720E708434780AF471216E36C
:100E140020000261D5E52C700261D5C200E4F540E2
:100E2400F551F552F553F555D3E5379522E5369549
:100E340021400B755410755632755700800875544F
:0A0E440080E4F556F557D20261D59F
:10150500E5466F606DEF605DE52245216057C3E5F7
:10151500229539FDE5219538FCD3ED942CEC6480BA
:1015250094814007EF640670027F05D3ED9454EC77
:10153500648094814007EF640570027F04D3ED94C5
:10154500A4EC648094814007EF640470027F03D3A8
:10155500ED9430EC648094824007EF640370027F61
:1015650002D2008004C200C2028F46EF900B5A934C
:02157500F54A35
:011577002251
:100F1C00EF8DF0A4A8F0CF8CF0A428CE8DF0A42EE9
:020F2C00FE22A3
:100F2E00BC000BBE0029EF8DF084FFADF022E4CCA7
:100F3E00F875F008EF2FFFEE33FEEC33FCEE9DEC70
:100F4E00984005FCEE9DFE0FD5F0E9E4CEFD22EDB6
:100F5E00F8F5F0EE8420D21CFEADF075F008EF2F00
:100F6E00FFED33FD4007985006D5F0F222C398FDF1
:050F7E000FD5F0EA228E
:100F8300C2D5EC30E709B2D5E4C39DFDE49CFCEE89
:100F930030E715B2D5E4C39FFFE49EFE120F2EC3C4
:100FA300E49DFDE49CFC8003120F2E30D507C3E4BF
:060FB3009FFFE49EFE22F8
:00000001FF
