:0300000002000EED
:0C000E00787FE4F6D8FD75817E020B7B44
:10003E000000000100020003000400050006000895
:10004E000009000A000B000C000D000E000F00103E
:10005E0000110012001300140015001600170018EE
:10006E000019001A001B001C001D001E001F00209E
:10007E000021002200230024002400250026002752
:10008E0000280029002A002B002C002D002E002F06
:10009E0000300031003200330034003500360037B6
:1000AE0000380039003A003B003B003C003D003E6A
:1000BE00003F00400041004200430044004500461E
:1000CE000047004800480049004A004B004C004DD4
:1000DE00004E004F00500051005200530053005488
:1000EE0000550056005700580059005A005B005C3E
:1000FE00005D005D005E005F0060006100620063F5
:10010E000064006500660066006700680069006AAA
:10011E00006B006C006D006E006E006F0070007161
:10012E000072007300740075007500760077007819
:10013E000079007A007B007C007D007D007E007FD0
:10014E000080008100820083008400840085008688
:10015E00008700880089008A008A008B008C008D41
:10016E00008E008F009000910091009200930094F9
:10017E00009500960097009700980099009A009BB2
:10018E00009C009D009E009E009F00A000A100A26A
:10019E0000A300A400A400A500A600A700A800A923
:1001AE0000AA00AA00AB00AC00AD00AE00AF00B0DC
:1001BE0000B000B100B200B300B400B500B600B696
:1001CE0000B700B800B900BA00BB00BC00BD00BD4E
:1001DE0000BE00BF00C000C100C200C300C300C407
:1001EE0000C500C600C700C800C900C900CA00CBC0
:1001FE0000CC00CD00CE00CF00CF00D000D100D279
:10020E0000D300D400D500D500D600D700D800D931
:10021E0000DA00DB00DC00DC00DD00DE00DF00E0E9
:10022E0000E100E200E200E300E400E500E600E7A2
:10023E0000E800E900E900EA00EB00EC00ED00EE5A
:10024E0000EF00F000F000F100F200F300F400F512
:10025E0000F600F700F700F800F900FA00FB00FCCA
:10026E0000FD00FE00FE00FF01000101010201037E
:10027E000104010501060106010701080109010A31
:10028E00010B010C010D010E010E010F01100111E8
:10029E00011201130114011501160116011701189F
:1002AE000119011A011B011C011D011E011F012054
:1002BE00012001210122012301240125012601270C
:1002CE0001280129012A012A012B012C012D012EC1
:1002DE00012F013001310132013301340135013674
:1002EE000136013701380139013A013B013C013D2C
:1002FE00013E013F014001410142014301440145DC
:10030E0001460146014701480149014A014B014C92
:10031E00014D014E014F0150015101520153015443
:10032E0001550156015701580159015A015B015CF3
:10033E00015D015E015F01600161016201630164A3
:10034E0001650166016701680169016A016B016C53
:10035E00016D016E016F0170017101720173017403
:10036E0001750176017701780179017A017B017CB3
:10037E00017D017E017F0180018101820183018463
:10038E0001850186018701880189018A018C018D11
:10039E00018E018F019001910192019301940195BB
:1003AE00019601970198019A019B019C019D019E66
:1003BE00019F01A001A101A201A301A501A601A710
:1003CE0001A801A901AA01AB01AC01AE01AF01B0B8
:1003DE0001B101B201B301B401B601B701B801B95F
:1003EE0001BA01BB01BD01BE01BF01C001C101C205
:1003FE0001C401C501C601C701C801CA01CB01CCA8
:10040E0001CD01CE01D001D101D201D301D501D64A
:10041E0001D701D801DA01DB01DC01DD01DF01E0EA
:10042E0001E101E201E401E501E601E701E901EA8A
:10043E0001EB01ED01EE01EF01F101F201F301F526
:10044E0001F601F701F901FA01FB01FD01FE01FFC1
:10045E000201020202030205020602080209020A52
:10046E00020C020D020F02100211021302140216E8
:10047E0002170219021A021C021D021F022002227A
:10048E0002230225022602280229022B022C022E0A
:10049E00022F023102320234023502370239023A99
:1004AE00023C023D023F0241024202440245024723
:1004BE000249024A024C024E024F025102530254AA
:1004CE0002560258025A025B025D025F026102622C
:1004DE000264026602680269026B026D026F0271AB
:1004EE000273027402760278027A027C027E028025
:1004FE000282028402860288028A028C028E029096
:10050E000292029402960298029A029C029E02A005
:10051E0002A202A402A602A902AB02AD02AF02B170
:10052E0002B402B602B802BA02BD02BF02C102C4D0
:10053E0002C602C802CB02CD02CF02D202D402D72B
:10054E0002D902DC02DE02E102E302E602E902EB7C
:10055E0002EE02F002F302F602F902FB02FE0301C2
:10056E00030403070309030C030F031203150318F7
:10057E00031B031E032103240328032B032E033125
:10058E0003340338033B033E034203450349034C44
:10059E00035003530357035B035E03620366036A50
:1005AE00036E037203750379037E03820386038A47
:1005BE00038E03930397039C03A003A503A903AE25
:1005CE0003B300030009000F0015001B00210027D4
:1005DE00002C00320037003C00410046004B00501A
:1005EE0000550059005E00620067006B006F0074DA
:1005FE000078007C008000840088008B008F0093C0
:10060E000097009A009E00A100A500A800AC00AFC4
:10061E0000B300B600B900BC00C000C300C600C9DC
:10062E0000CC00CF00D200D500D800DB00DE00E108
:10063E0000E400E700E900EC00EF00F200F400F740
:10064E0000FA00FC00FF0102010401070109010C80
:10065E00010E0111011301160118011B011D0120CC
:10066E000122012401270129012B012E0130013223
:10067E00013401370139013B013D01400142014482
:10068E0001460148014A014D014F015101530155E7
:10069E0001570159015B015D015F01610163016554
:1006AE0001670169016B016D016F017101730175C4
:1006BE0001770179017B017D017E01800182018438
:1006CE0001860188018A018B018D018F01910193B1
:1006DE00019501960198019A019C019D019F01A12E
:1006EE0001A301A401A601A801AA01AB01AD01AFAE
:1006FE0001B101B201B401B601B701B901BB01BC30
:10070E0001BE01C001C101C301C501C601C801C9B5
:10071E0001CB01CD01CE01D001D101D301D501D63E
:10072E0001D801D901DB01DD01DE01E001E101E3C8
:10073E0001E401E601E801E901EB01EC01EE01EF54
:10074E0001F101F201F401F501F701F801FA01FBE3
:10075E0001FD01FE0200020102030204020602076D
:10076E000209020A020C020D020E021002110213FD
:10077E000214021602170219021A021B021D021E91
:10078E000220022102230224022502270228022A25
:10079E00022B022D022E022F0231023202330235BB
:1007AE00023602380239023A023C023D023F024052
:1007BE00024102430244024502470248024A024BEA
:1007CE00024C024E024F0250025202530254025683
:1007DE0002570258025A025B025C025E025F02601E
:1007EE00026202630264026602670268026A026BB8
:1007FE00026C026E026F0270027202730274027653
:10080E00027702780279027B027C027D027F0280EF
:10081E000281028302840285028602880289028A8C
:10082E00028C028D028E028F029102920293029529
:10083E00029602970298029A029B029C029E029FC7
:10084E0002A002A102A302A402A502A602A802A966
:10085E0002AA02AC02AD02AE02AF02B102B202B304
:10086E0002B402B602B702B802B902BB02BC02BDA4
:10087E0002BF02C002C102C202C402C502C602C742
:10088E0002C902CA02CB02CC02CE02CF02D002D1E2
:10089E0002D302D402D502D602D802D902DA02DB82
:1008AE0002DD02DE02DF02E002E202E302E402E522
:1008BE0002E702E802E902EA02EC02ED02EE02EFC2
:1008CE0002F102F202F302F402F602F702F802F962
:1008DE0002FB02FC02FD02FE0300030103020303FE
:1008EE0003050306030703080309030B030C030D9B
:1008FE00030E03100311031203130315031603173C
:10090E000318031A031B031C031D031F03200321DB
:10091E00032203240325032603270329032A032B7B
:10092E00032D032E032F0330033203330334033519
:10093E00033703380339033A033C033D033E033FB9
:10094E000341034203430344034603470348034959
:10095E00034B034C034D034F0350035103520354F7
:10096E000355035603570359035A035B035D035E96
:10097E00035F036003620363036403660367036834
:10098E000369036B036C036D036F037003710372D2
:10099E0003740375037603780379037A037B037D6F
:1009AE00037E037F0381038203830385038603870C
:1009BE000389038A038B038C038E038F03900392A8
:1009CE0003930394039603970398039A039B039C44
:1009DE00039E039F03A003A203A303A403A603A7DE
:1009EE0003A803AA03AB03AC03AE03AF03B003B279
:1009FE0003B303B403B603B703B803BA03BB03BD13
:100A0E0003BE03BF03C103C203C303C503C603C8AA
:100A1E0003C903CA03CC03CD03CE03D003D103D342
:100A2E0003D403D503D703D803DA03DB03DC03DED9
:100A3E0003DF03E103E203E303E503E603E803E96F
:100A4E0003EB03EC03ED03EF03F003F2E6E6E6E659
:100A5E00E6E6E6E4E2E0DFDDDCDAD9D7D6D5D3D2BE
:100A6E00D1D0CFCDCCCBCAC9C8C7C6C5C4C3C2C1ED
:100A7E00C0C0BFBEBDBCBBBAB9B9B8B7B6B5B5B4C8
:100A8E00B3B2B1B1B0AFAEAEADACABABAAA9A8A884
:100A9E00A7A6A5A5A4A3A3A2A1A1A09F9E9E9D9C2F
:100AAE009C9B9A9A999898979696959494939292CD
:100ABE009190908F8F8E8D8D8C8B8B8A8989888764
:100ACE008786868584848382828180807F7F7E7DF7
:100ADE007D7C7B7B7A79797878777676757474738A
:100AEE0072727170706F6F6E6D6D6C6B6B6A69691F
:100AFE00686767666565646363626161605F5E5EB9
:100B0E005D5C5C5B5A5A595857575655545453525C
:100B1E005151504F4E4E4D4C4B4A4A49484746460E
:100B2E004544434241403F3F3E3D3C3B3A393837D6
:100B3E003635343332302F2E2D2C2A2928262523D4
:100B4E0022201F1D1B191714120E0A00002A3048EE
:100B5E006CA0FFFF0090FEB5DDF7010A3264B0E233
:0D0B6E00F1FB00050F1E5000050000010303
:10152300AF04AE630563742E2EF8A607AF05AE6352
:101533000563742E2EF8A60722756301AF63056356
:10154300742E2FF822AE630563742E2EF822AE7923
:10155300AF7A7C007D64020F74AFBDEFFEACBEECCE
:10156300FBEBFFED25E02451F8227C007D05020F03
:101573001F6480F8E50964809822EA93FF3395E0BD
:10158300227D64FE7C00020F0D3EF583E493FE741E
:101593000193FF22AF63121728742E2563F822E507
:1015A300096480948022257AF57AEE3579F57922DB
:1016A100C3EF94EBEE940050057EFF7FFF22C3EF62
:1016B100947DEE940640057E037FB622EF25E0FF80
:0E16C100EE33FE74682FF58274FE12158C2233
:1016CF00C3EF941EEE94005004E4FEFF22C3EF9488
:1016DF00A8EE940440057E037FF322EF25E0FFEE92
:0D16EF0033FE74942FF582740512158C22C1
:090030007F167E80DEFEDFFC225B
:090FF000E56854C070028F68220C
:101000008E098F0AE574648C600B741E250AF50A3C
:10101000E43509F509C31215A2500BC3E4950AFF84
:10102000E49509FE8004AE09AF0A8E0B8F0CC3E570
:101030000A9578FFE50995777D051215868E0F8F45
:1010400010850977850A78C3E52D94037480948010
:101050005019E52D600CE5289458E52764809482AA
:101060004009E52D900B6293FB80027BFFEBFF7E36
:10107000002510FDEE350FFCD3ED94FFEC64809459
:101080008040047BFF8016C3EF9510EE950FC3647C
:101090008094805004E4FB8004E5102BFB0572C3B0
:1010A000E572940574809480500221A9E4F572F5EC
:1010B0000DF50EF50FF510FAEAC3940774809480CD
:1010C0004002216D900B6C12157DF5118F12900B63
:1010D0006E12157DF5138F14C3E50A9512E51112F2
:1010E00015745002216AD3E50A9514E5131215749C
:1010F0005078EA900B6D93FF3395E08F82F583D3A0
:10110000E50A9582E5831215745019C3E50A951214
:10111000FFE5099511121584C3E5829512FDE5835B
:1011200095118017C3E514950AFFE513950912156B
:1011300084C3E5149582FDE5139583FC120F748E2C
:10114000118F12E512250EF50EE511350DF50DEA9C
:10115000900B6593FF3395E0FEAC11AD12120F0DAD
:10116000EF2510F510EE350FF50F0A01B8E50E4525
:101170000D600DAC0DAD0EAE0FAF10120F748004EC
:10118000AE09AF0AEF1215A9C3648094805007E43A
:10119000F579F57A8013D3E57A949CE579648094A7
:1011A000E34006757963757A9CD3E50C9432E50BC0
:1011B000648094805002415ED3E50A94321215A2F5
:1011C0004041E57564016016757501E579648094A8
:1011D000CB500BE57675F064A4AEF01215A9D3E5FB
:1011E0000A94961215A2500CE57A94DCE579648095
:1011F00094D040047FFF8007121551EF2430FF8FF9
:10120000158050E57564026024757502D3E57A9403
:1012100080E579648094A54014E57675F064A4FFB8
:10122000AEF0C3E57A9FF57AE5799EF579C3E50AD4
:10123000946AE5096480947F400CE57A94C0E5796E
:101240006480949250047F008007121551EF24D0DF
:10125000FF8F15E5756404702D7575058028E5759B
:1012600064057004F5758011E5755403600B7575A0
:1012700004E5766004C313F576E574648C600205BA
:10128000741215518F15E515F4701E0573E5737012
:1012900025D3E567940274809480401A15677579A8
:1012A0004B757A00757620800DD3E57394007480B9
:1012B000948040021573E515C39B5003AF1522AF10
:0212C000032207
:10172800E4FEFDEEC39F501FAC060E742E2CF8E6A7
:1017380062057C07ED30E70725E06407FD8004EDCE
:0A17480025E0FDDCEF80DCAF052298
:1016FC00E4FBE56324FEF52E121597A607EBD395B4
:10170C00635015AF030B742E2FF8E6A2D0929BF505
:0C171C00993099FDC29980E5E4F5632244
:03001B00020026BA
:0A002600D206D204756300C28E32C8
:030023000215B310
:1015B300C0E0C083C082C0D075D000C000C004C0EA
:1015C30005C006C007C28E742E2563F8A699C2987B
:1015D300E52E2402FFE433FEAD63EF6D7001EE6090
:1015E30005ED641F7028121597E6B5071AAF2FEFA4
:1015F300C3940674809480500EEF900B7593B52EB0
:1016030006D202C2AC8011756300D206800A05635C
:10161300758B66758DC6D28ED007D006D005D004E3
:0B162300D000D0D0D082D083D0E032C5
:100E4100056CC3E56C9414748094805002E10CE449
:100E5100F56CAF2CAE2BE52424FD6057147002C154
:100E6100E824036002E10CAD52AC51D3ED956FEC77
:100E7100956E5011E56F24FFFBE56E34FFFAC3ED6B
:100E81009BEC9A50078C6E8D6FE4F56D056DC3E593
:100E91006D943C748094804072C207C208EF94BC88
:100EA100EE6480948250097F05120FF0E4F524224C
:100EB100752403A20192A2D3E56A94F4E5696480E2
:100EC10094814006AC69AD6A80047C017DF4ED2417
:100ED10005FDE43CFCD3EF9DEC6480F8EE64809862
:100EE1005029C2A2752404C3EF956AFFEE9569FEED
:100EF100D3EF9400EE648094804003C20822C3EFD4
:0C0F010094FBEE6480947F5002D2082222
:10177600AD07C2AFED24024488F5BCE5BC30E4FBFE
:0E17860075BC8012155CA60608A607D2AF221D
:10175200AD07ED24024488F5BCE5BC30E4FB30055E
:1017620007121566E4F608F612155C08EF26F6185D
:04177200EE36F62237
:03000300020FAA3F
:100FAA00C0E0C0D075D000C000C003C004C005C0F6
:100FBA0006C00730B21F854F7B85507C754F007580
:100FCA005000D2B6A20392B4A20792B7A20892A086
:100FDA007F05121776D007D006D005D004D003D0EB
:060FEA0000D0D0D0E0327F
:03003B0002179415
:0817940030D804C2D8057D32F3
:03000B000212C21C
:1012C200C0E0C0F0C083C082C0D075D000C000C0F2
:1012D20002C003C004C005C006C007E56B6009E593
:1012E20062D3956B50028001C392A1300332E56153
:1012F200602E900A5A936025FD7C0065507002E5CD
:101302004F601AE57BC313FEE57C132DFFEC3EFE16
:10131200EF65507003EE654F6003D38001C392B650
:101322000550E5507002054FE54FC4540F60187523
:101332007B00757C00755B00755C0030B4047F41F6
:1013420080027F40120FF00562E5626002A10AC2CC
:10135200AF7F041217527F031217527F02121752E5
:10136200E4FF12175275BC80C205D2AF054EE54E9E
:1013720064056002A10A857D2DF57DF54EE52DC33C
:1013820095675023C3E56B94FF74809480500205E7
:101392006B0566E5666428702F7F01120FF0C207A5
:1013A200C2087524008021E52DD39567400DD3E551
:1013B2006B9428748094804002156BD3E566940088
:1013C2007480948040021566E52D2560F560E43551
:1013D2005FF55FAE59AF5A12156D8E598F5AAE57DF
:1013E200AF5812156D8E578F58C3E55A94EBE559D5
:1013F200940050057F42120FF0C3E55A947DE559DF
:10140200940640057F43120FF0C3E558941EE5573A
:10141200940050057F44120FF0C3E5589438E55705
:1014220094024013E55894A8E557940440047F457C
:1014320080027F03120FF0E55A24ECFFE55934FFD6
:10144200FE1216A18E258F26AF58AE571216CF8EDA
:10145200278F28E56B6024E523452260067E017F05
:10146200F480047E037F20C3E5269FEE6480F8E5C6
:101472002564809840057F02120FF0300310C3E507
:10148200239528FFE5229527FE1210008F61AE55A5
:10149200AF5612156D8E558F56AE51AF5212156D55
:1014A2008E518F52C3E55694EBE555940050057F5B
:1014B20046120FF0C3E556947DE555940640057F2C
:1014C20047120FF0C3E552941EE551940050057F78
:1014D20048120FF0C3E55294A8E551940440057FE9
:1014E20049120FF0AF56AE551216A18E298F2AE57A
:1014F200522401FFE43551FE1216CF8E2B8F2CE5BC
:10150200246003120E41D205D007D006D005D004C4
:10151200D003D002D000D0D0D082D083D0F0D0E09F
:011522003296
:100B7B0075A01075B00375930B7594047595E0759E
:100B8B00961775B12475B2D843A22075DA61D2DEFF
:100B9B0075BC8043972012003075BC88E5BC30E4EF
:100BAB00FB75BC80AFBDEFADBEF55DEDF55E759D24
:100BBB00FC758E95758AA0758CFC7598D075D7D001
:100BCB0075D6FF75881012153C76011216FC75A8A8
:100BDB009B43C11020020281E7E52F14601A1460B9
:100BEB005214605B147002817D147002819824058D
:100BFB00600281C3D20481E0E530F522E531F523B3
:100C0B00D3E52394B6E522648094835009C3E5228F
:100C1B00648094805009E4F522F523D20681C3E465
:100C2B00F55FF560E533F564E534F565AF32121623
:100C3B002E81C3E56830E60280FEE4F56881C312BD
:100C4B00153C7604E522FF121531121548A623E553
:100C5B005FFF121531121548A660E569FF121531B9
:100C6B00121548A66AA201E433FF1215311216FCC5
:100C7B008066E4F56EF56FF56CE53024FF92075056
:100C8B0007D2087524018030752404802BE53024AD
:100C9B00FF9201E531F569E532F56AD3E56A9420F7
:100CAB00E569648094835009C3E56964809480503E
:100CBB0007E4F569F56AD206742E2563F8E6F508A4
:100CCB00AF2F756301121548760112153112153FBE
:100CDB00A6081216FCE4F563C202D2AC200402A1F2
:100CEB009DE5636002A19DC2ACE5636002A199C260
:100CFB00047563013006047F0380027F02121531F5
:100D0B0012153FA66812153FA67EE4FD30A2010D19
:100D1B0030B30343050230A00343050430B703434C
:100D2B000508E56B600343051030B403430520123F
:100D3B00152FAC25AD26121523AC27AD2812152384
:100D4B00E55FFF121531121548A660AC5BAD5C1266
:100D5B001523E57BFF121531121548A67C12153FA2
:100D6B00762512153FA624AC29AD2A121523AC2BE0
:100D7B00AD2C12152312153F7614AC79AD7A1215E2
:100D8B002312153FA66B12153FA6611216FCC20665
:100D9B00D2ACE4F50820A6034308012081034308E5
:100DAB000220830343080420CC0343080820CD030F
:100DBB00430810E56545646013C3E5609565E55F21
:100DCB0095644008430820E4FF12162EE57E650863
:100DDB00600585087ED204E568601DC200C203541D
:100DEB007F640370047F0180027F0012162EE5687A
:100DFB0020E705436880D20420000261DCE52D70FA
:100E0B000261DCC200E4F561F572F573F574F575FA
:100E1B00F577F578D3E5589523E5579522400B7573
:100E2B007610757932757A008008757680E4F579DD
:060E3B00F57AD20361DC30
:10162E00E5676F606DEF605DE52345226057C3E5AA
:10163E0023955AFDE5229559FCD3ED942CEC64804C
:10164E0094814007EF640670027F05D3ED9454EC4D
:10165E00648094814007EF640570027F04D3ED949B
:10166E00A4EC648094814007EF640470027F03D37E
:10167E00ED9430EC648094824007EF640370027F37
:10168E0002D2008004C200C2038F67EF900B5A9300
:03169E00F56B22C7
:100F0D00EF8DF0A4A8F0CF8CF0A428CE8DF0A42EF8
:020F1D00FE22B2
:100F1F00BC000BBE0029EF8DF084FFADF022E4CCB6
:100F2F00F875F008EF2FFFEE33FEEC33FCEE9DEC7F
:100F3F00984005FCEE9DFE0FD5F0E9E4CEFD22EDC5
:100F4F00F8F5F0EE8420D21CFEADF075F008EF2F0F
:100F5F00FFED33FD4007985006D5F0F222C398FD00
:050F6F000FD5F0EA229D
:100F7400C2D5EC30E709B2D5E4C39DFDE49CFCEE98
:100F840030E715B2D5E4C39FFFE49EFE120F1FC3E2
:100F9400E49DFDE49CFC8003120F1F30D507C3E4DD
:060FA4009FFFE49EFE2207
:00000001FF
